{
  "_format": "hh-sol-artifact-1",
  "contractName": "Grandvote",
  "sourceName": "contracts/Grandvote.sol",
  "abi": [
    {
      "inputs": [],
      "stateMutability": "nonpayable",
      "type": "constructor"
    },
    {
      "inputs": [
        {
          "internalType": "string[]",
          "name": "aspirantsName",
          "type": "string[]"
        },
        {
          "internalType": "uint256",
          "name": "votingCommenceTime",
          "type": "uint256"
        },
        {
          "internalType": "uint256",
          "name": "votingEndTime",
          "type": "uint256"
        },
        {
          "internalType": "uint256",
          "name": "minVotes",
          "type": "uint256"
        }
      ],
      "name": "addAspirants",
      "outputs": [],
      "stateMutability": "nonpayable",
      "type": "function"
    },
    {
      "inputs": [
        {
          "internalType": "uint256",
          "name": "",
          "type": "uint256"
        }
      ],
      "name": "aspirants",
      "outputs": [
        {
          "internalType": "string",
          "name": "nameAspirant",
          "type": "string"
        },
        {
          "internalType": "uint256",
          "name": "voteCount",
          "type": "uint256"
        }
      ],
      "stateMutability": "view",
      "type": "function"
    },
    {
      "inputs": [],
      "name": "aspirantsAdded",
      "outputs": [
        {
          "internalType": "bool",
          "name": "",
          "type": "bool"
        }
      ],
      "stateMutability": "view",
      "type": "function"
    },
    {
      "inputs": [],
      "name": "endVoting",
      "outputs": [],
      "stateMutability": "nonpayable",
      "type": "function"
    },
    {
      "inputs": [],
      "name": "enlistVoter",
      "outputs": [],
      "stateMutability": "nonpayable",
      "type": "function"
    },
    {
      "inputs": [],
      "name": "freshPoll",
      "outputs": [],
      "stateMutability": "nonpayable",
      "type": "function"
    },
    {
      "inputs": [],
      "name": "getVotingChairman",
      "outputs": [
        {
          "internalType": "address",
          "name": "",
          "type": "address"
        }
      ],
      "stateMutability": "view",
      "type": "function"
    },
    {
      "inputs": [
        {
          "internalType": "address",
          "name": "_address",
          "type": "address"
        }
      ],
      "name": "grantOwnership",
      "outputs": [],
      "stateMutability": "nonpayable",
      "type": "function"
    },
    {
      "inputs": [],
      "name": "isVotingOpen",
      "outputs": [
        {
          "internalType": "bool",
          "name": "",
          "type": "bool"
        }
      ],
      "stateMutability": "view",
      "type": "function"
    },
    {
      "inputs": [],
      "name": "listingPrice",
      "outputs": [
        {
          "internalType": "uint256",
          "name": "",
          "type": "uint256"
        }
      ],
      "stateMutability": "view",
      "type": "function"
    },
    {
      "inputs": [],
      "name": "minimumVotes",
      "outputs": [
        {
          "internalType": "uint256",
          "name": "",
          "type": "uint256"
        }
      ],
      "stateMutability": "view",
      "type": "function"
    },
    {
      "inputs": [
        {
          "internalType": "uint256",
          "name": "aspirantIndex",
          "type": "uint256"
        }
      ],
      "name": "retrieveAspirant",
      "outputs": [
        {
          "internalType": "string",
          "name": "",
          "type": "string"
        },
        {
          "internalType": "uint256",
          "name": "",
          "type": "uint256"
        }
      ],
      "stateMutability": "view",
      "type": "function"
    },
    {
      "inputs": [],
      "name": "retrieveAspirantsLength",
      "outputs": [
        {
          "internalType": "uint256",
          "name": "",
          "type": "uint256"
        }
      ],
      "stateMutability": "view",
      "type": "function"
    },
    {
      "inputs": [],
      "name": "retrieveRegisteredVoters",
      "outputs": [
        {
          "internalType": "address[]",
          "name": "",
          "type": "address[]"
        }
      ],
      "stateMutability": "view",
      "type": "function"
    },
    {
      "inputs": [],
      "name": "retrieveTotalVotes",
      "outputs": [
        {
          "internalType": "uint256",
          "name": "",
          "type": "uint256"
        }
      ],
      "stateMutability": "view",
      "type": "function"
    },
    {
      "inputs": [
        {
          "internalType": "address",
          "name": "voter",
          "type": "address"
        }
      ],
      "name": "retrieveVotedFor",
      "outputs": [
        {
          "internalType": "uint256",
          "name": "",
          "type": "uint256"
        }
      ],
      "stateMutability": "view",
      "type": "function"
    },
    {
      "inputs": [
        {
          "internalType": "address",
          "name": "voter",
          "type": "address"
        }
      ],
      "name": "retrieveVotervotedAlready",
      "outputs": [
        {
          "internalType": "bool",
          "name": "",
          "type": "bool"
        }
      ],
      "stateMutability": "view",
      "type": "function"
    },
    {
      "inputs": [],
      "name": "retrieveVotingEnd",
      "outputs": [
        {
          "internalType": "uint256",
          "name": "",
          "type": "uint256"
        }
      ],
      "stateMutability": "view",
      "type": "function"
    },
    {
      "inputs": [],
      "name": "retrieveVotingStart",
      "outputs": [
        {
          "internalType": "uint256",
          "name": "",
          "type": "uint256"
        }
      ],
      "stateMutability": "view",
      "type": "function"
    },
    {
      "inputs": [],
      "name": "retrieveWinner",
      "outputs": [
        {
          "internalType": "string",
          "name": "",
          "type": "string"
        }
      ],
      "stateMutability": "view",
      "type": "function"
    },
    {
      "inputs": [],
      "name": "timestamp",
      "outputs": [
        {
          "internalType": "uint256",
          "name": "",
          "type": "uint256"
        }
      ],
      "stateMutability": "view",
      "type": "function"
    },
    {
      "inputs": [],
      "name": "totalVotes",
      "outputs": [
        {
          "internalType": "uint256",
          "name": "",
          "type": "uint256"
        }
      ],
      "stateMutability": "view",
      "type": "function"
    },
    {
      "inputs": [],
      "name": "undoMapping",
      "outputs": [],
      "stateMutability": "nonpayable",
      "type": "function"
    },
    {
      "inputs": [
        {
          "internalType": "uint256",
          "name": "aspirantIndex",
          "type": "uint256"
        }
      ],
      "name": "voteNow",
      "outputs": [],
      "stateMutability": "nonpayable",
      "type": "function"
    },
    {
      "inputs": [
        {
          "internalType": "address",
          "name": "",
          "type": "address"
        }
      ],
      "name": "voters",
      "outputs": [
        {
          "internalType": "bool",
          "name": "isRegistered",
          "type": "bool"
        },
        {
          "internalType": "bool",
          "name": "votedAlready",
          "type": "bool"
        },
        {
          "internalType": "uint256",
          "name": "votedFor",
          "type": "uint256"
        }
      ],
      "stateMutability": "view",
      "type": "function"
    },
    {
      "inputs": [],
      "name": "votingChairman",
      "outputs": [
        {
          "internalType": "address",
          "name": "",
          "type": "address"
        }
      ],
      "stateMutability": "view",
      "type": "function"
    },
    {
      "inputs": [],
      "name": "votingCommence",
      "outputs": [
        {
          "internalType": "uint256",
          "name": "",
          "type": "uint256"
        }
      ],
      "stateMutability": "view",
      "type": "function"
    },
    {
      "inputs": [],
      "name": "votingEnd",
      "outputs": [
        {
          "internalType": "uint256",
          "name": "",
          "type": "uint256"
        }
      ],
      "stateMutability": "view",
      "type": "function"
    }
  ],
  "bytecode": "0x608060405265022ecb25c00060005534801561001a57600080fd5b5033600160006101000a81548173ffffffffffffffffffffffffffffffffffffffff021916908373ffffffffffffffffffffffffffffffffffffffff16021790555061239c8061006b6000396000f3fe608060405234801561001057600080fd5b50600436106101c45760003560e01c8063a3ec138d116100f9578063c78fa94b11610097578063f6e34c5211610071578063f6e34c52146104a2578063fa7f1bae146104c0578063fc2ac156146104de578063fce59287146104e8576101c4565b8063c78fa94b14610423578063df4d6aff14610454578063eef5545814610484576101c4565b8063acfd82f2116100d3578063acfd82f2146103c1578063b80777ea146103dd578063c3403ddf146103fb578063c78f19f914610405576101c4565b8063a3ec138d14610367578063a9d5c5b014610399578063ab3e9e6c146103b7576101c4565b8063517c3c261161016657806371e1ea0c1161014057806371e1ea0c146102df57806385a386351461030f578063919f7ae91461032d57806393032b851461034b576101c4565b8063517c3c261461028557806360c26cd6146102a35780636407e0d4146102c1576101c4565b8063316fa644116101a2578063316fa644146102235780633bb049311461023f57806343be1a3d1461025d57806349a979151461027b576101c4565b80630b8ede63146101c95780630d15fd77146101e757806319753cae14610205575b600080fd5b6101d1610519565b6040516101de91906116d7565b60405180910390f35b6101ef610650565b6040516101fc9190611712565b60405180910390f35b61020d610656565b60405161021a919061176e565b60405180910390f35b61023d600480360381019061023891906119e4565b610680565b005b6102476108db565b6040516102549190611712565b60405180910390f35b6102656108e5565b604051610272919061176e565b60405180910390f35b61028361090b565b005b61028d6109f0565b60405161029a9190611a82565b60405180910390f35b6102ab610a03565b6040516102b89190611b5b565b60405180910390f35b6102c9610a91565b6040516102d69190611712565b60405180910390f35b6102f960048036038101906102f49190611ba9565b610a97565b6040516103069190611a82565b60405180910390f35b610317610af0565b6040516103249190611712565b60405180910390f35b610335610af6565b6040516103429190611712565b60405180910390f35b61036560048036038101906103609190611bd6565b610b03565b005b610381600480360381019061037c9190611ba9565b610db0565b60405161039093929190611c03565b60405180910390f35b6103a1610df4565b6040516103ae9190611712565b60405180910390f35b6103bf610dfa565b005b6103db60048036038101906103d69190611ba9565b610ed3565b005b6103e5610fa7565b6040516103f29190611712565b60405180910390f35b610403610fad565b005b61040d6110e8565b60405161041a9190611712565b60405180910390f35b61043d60048036038101906104389190611bd6565b6110ee565b60405161044b929190611c3a565b60405180910390f35b61046e60048036038101906104699190611ba9565b611219565b60405161047b9190611712565b60405180910390f35b61048c611265565b6040516104999190611712565b60405180910390f35b6104aa61126f565b6040516104b79190611712565b60405180910390f35b6104c8611279565b6040516104d59190611a82565b60405180910390f35b6104e661128c565b005b61050260048036038101906104fd9190611bd6565b61142b565b604051610510929190611c3a565b60405180910390f35b606060008060005b60038054905081101561059a57826003828154811061054357610542611c6a565b5b9060005260206000209060020201600101541115610587576003818154811061056f5761056e611c6a565b5b90600052602060002090600202016001015492508091505b808061059290611cc8565b915050610521565b50600381815481106105af576105ae611c6a565b5b906000526020600020906002020160000180546105cb90611d40565b80601f01602080910402602001604051908101604052809291908181526020018280546105f790611d40565b80156106445780601f1061061957610100808354040283529160200191610644565b820191906000526020600020905b81548152906001019060200180831161062757829003601f168201915b50505050509250505090565b60085481565b6000600160009054906101000a900473ffffffffffffffffffffffffffffffffffffffff16905090565b600160009054906101000a900473ffffffffffffffffffffffffffffffffffffffff1673ffffffffffffffffffffffffffffffffffffffff163373ffffffffffffffffffffffffffffffffffffffff1614610710576040517f08c379a000000000000000000000000000000000000000000000000000000000815260040161070790611de4565b60405180910390fd5b600760019054906101000a900460ff1615610760576040517f08c379a000000000000000000000000000000000000000000000000000000000815260040161075790611e9c565b60405180910390fd5b60008451116107a4576040517f08c379a000000000000000000000000000000000000000000000000000000000815260040161079b90611f2e565b60405180910390fd5b8183106107e6576040517f08c379a00000000000000000000000000000000000000000000000000000000081526004016107dd90611fc0565b60405180910390fd5b60005b8451811015610889576003604051806040016040528087848151811061081257610811611c6a565b5b602002602001015181526020016000815250908060018154018082558091505060019003906000526020600020906002020160009091909190915060008201518160000190805190602001906108699291906114e7565b50602082015181600101555050808061088190611cc8565b9150506107e9565b508260048190555081600581905550806006819055506001600760006101000a81548160ff0219169083151502179055506001600760016101000a81548160ff02191690831515021790555050505050565b6000600554905090565b600160009054906101000a900473ffffffffffffffffffffffffffffffffffffffff1681565b600060098054905011156109ee5760005b6009805490508110156109ec57600260006009838154811061094157610940611c6a565b5b9060005260206000200160009054906101000a900473ffffffffffffffffffffffffffffffffffffffff1673ffffffffffffffffffffffffffffffffffffffff1673ffffffffffffffffffffffffffffffffffffffff168152602001908152602001600020600080820160006101000a81549060ff02191690556000820160016101000a81549060ff02191690556001820160009055505080806109e490611cc8565b91505061091c565b505b565b600760019054906101000a900460ff1681565b60606009805480602002602001604051908101604052809291908181526020018280548015610a8757602002820191906000526020600020905b8160009054906101000a900473ffffffffffffffffffffffffffffffffffffffff1673ffffffffffffffffffffffffffffffffffffffff1681526020019060010190808311610a3d575b5050505050905090565b60065481565b6000600260008373ffffffffffffffffffffffffffffffffffffffff1673ffffffffffffffffffffffffffffffffffffffff16815260200190815260200160002060000160019054906101000a900460ff169050919050565b60055481565b6000600380549050905090565b600760009054906101000a900460ff16610b52576040517f08c379a0000000000000000000000000000000000000000000000000000000008152600401610b499061202c565b60405180910390fd5b600260003373ffffffffffffffffffffffffffffffffffffffff1673ffffffffffffffffffffffffffffffffffffffff16815260200190815260200160002060000160009054906101000a900460ff16610be1576040517f08c379a0000000000000000000000000000000000000000000000000000000008152600401610bd890612098565b60405180910390fd5b600260003373ffffffffffffffffffffffffffffffffffffffff1673ffffffffffffffffffffffffffffffffffffffff16815260200190815260200160002060000160019054906101000a900460ff1615610c71576040517f08c379a0000000000000000000000000000000000000000000000000000000008152600401610c6890612104565b60405180910390fd5b6003805490508110610cb8576040517f08c379a0000000000000000000000000000000000000000000000000000000008152600401610caf90612170565b60405180910390fd5b6001600260003373ffffffffffffffffffffffffffffffffffffffff1673ffffffffffffffffffffffffffffffffffffffff16815260200190815260200160002060000160016101000a81548160ff02191690831515021790555080600260003373ffffffffffffffffffffffffffffffffffffffff1673ffffffffffffffffffffffffffffffffffffffff1681526020019081526020016000206001018190555060038181548110610d6e57610d6d611c6a565b5b90600052602060002090600202016001016000815480929190610d9090611cc8565b919050555060086000815480929190610da890611cc8565b919050555050565b60026020528060005260406000206000915090508060000160009054906101000a900460ff16908060000160019054906101000a900460ff16908060010154905083565b60045481565b600160009054906101000a900473ffffffffffffffffffffffffffffffffffffffff1673ffffffffffffffffffffffffffffffffffffffff163373ffffffffffffffffffffffffffffffffffffffff1614610e8a576040517f08c379a0000000000000000000000000000000000000000000000000000000008152600401610e8190611de4565b60405180910390fd5b60036000610e98919061156d565b6000600881905550610ea861090b565b60096000610eb69190611591565b6000600760016101000a81548160ff021916908315150217905550565b600160009054906101000a900473ffffffffffffffffffffffffffffffffffffffff1673ffffffffffffffffffffffffffffffffffffffff163373ffffffffffffffffffffffffffffffffffffffff1614610f63576040517f08c379a0000000000000000000000000000000000000000000000000000000008152600401610f5a90612202565b60405180910390fd5b80600160006101000a81548173ffffffffffffffffffffffffffffffffffffffff021916908373ffffffffffffffffffffffffffffffffffffffff16021790555050565b600a5481565b600160009054906101000a900473ffffffffffffffffffffffffffffffffffffffff1673ffffffffffffffffffffffffffffffffffffffff163373ffffffffffffffffffffffffffffffffffffffff161461103d576040517f08c379a000000000000000000000000000000000000000000000000000000000815260040161103490611de4565b60405180910390fd5b600554600a541015611084576040517f08c379a000000000000000000000000000000000000000000000000000000000815260040161107b9061226e565b60405180910390fd5b60065460085410156110cb576040517f08c379a00000000000000000000000000000000000000000000000000000000081526004016110c2906122da565b60405180910390fd5b6000600760006101000a81548160ff021916908315150217905550565b60005481565b606060006003805490508310611139576040517f08c379a000000000000000000000000000000000000000000000000000000000815260040161113090612170565b60405180910390fd5b6003838154811061114d5761114c611c6a565b5b90600052602060002090600202016000016003848154811061117257611171611c6a565b5b90600052602060002090600202016001015481805461119090611d40565b80601f01602080910402602001604051908101604052809291908181526020018280546111bc90611d40565b80156112095780601f106111de57610100808354040283529160200191611209565b820191906000526020600020905b8154815290600101906020018083116111ec57829003601f168201915b5050505050915091509150915091565b6000600260008373ffffffffffffffffffffffffffffffffffffffff1673ffffffffffffffffffffffffffffffffffffffff168152602001908152602001600020600101549050919050565b6000600854905090565b6000600454905090565b600760009054906101000a900460ff1681565b600760009054906101000a900460ff166112db576040517f08c379a00000000000000000000000000000000000000000000000000000000081526004016112d29061202c565b60405180910390fd5b600260003373ffffffffffffffffffffffffffffffffffffffff1673ffffffffffffffffffffffffffffffffffffffff16815260200190815260200160002060000160009054906101000a900460ff161561136b576040517f08c379a000000000000000000000000000000000000000000000000000000000815260040161136290612346565b60405180910390fd5b6001600260003373ffffffffffffffffffffffffffffffffffffffff1673ffffffffffffffffffffffffffffffffffffffff16815260200190815260200160002060000160006101000a81548160ff0219169083151502179055506009339080600181540180825580915050600190039060005260206000200160009091909190916101000a81548173ffffffffffffffffffffffffffffffffffffffff021916908373ffffffffffffffffffffffffffffffffffffffff160217905550565b6003818154811061143b57600080fd5b906000526020600020906002020160009150905080600001805461145e90611d40565b80601f016020809104026020016040519081016040528092919081815260200182805461148a90611d40565b80156114d75780601f106114ac576101008083540402835291602001916114d7565b820191906000526020600020905b8154815290600101906020018083116114ba57829003601f168201915b5050505050908060010154905082565b8280546114f390611d40565b90600052602060002090601f016020900481019282611515576000855561155c565b82601f1061152e57805160ff191683800117855561155c565b8280016001018555821561155c579182015b8281111561155b578251825591602001919060010190611540565b5b50905061156991906115b2565b5090565b508054600082556002029060005260206000209081019061158e91906115cf565b50565b50805460008255906000526020600020908101906115af91906115b2565b50565b5b808211156115cb5760008160009055506001016115b3565b5090565b5b808211156115fa57600080820160006115e991906115fe565b6001820160009055506002016115d0565b5090565b50805461160a90611d40565b6000825580601f1061161c575061163b565b601f01602090049060005260206000209081019061163a91906115b2565b5b50565b600081519050919050565b600082825260208201905092915050565b60005b8381101561167857808201518184015260208101905061165d565b83811115611687576000848401525b50505050565b6000601f19601f8301169050919050565b60006116a98261163e565b6116b38185611649565b93506116c381856020860161165a565b6116cc8161168d565b840191505092915050565b600060208201905081810360008301526116f1818461169e565b905092915050565b6000819050919050565b61170c816116f9565b82525050565b60006020820190506117276000830184611703565b92915050565b600073ffffffffffffffffffffffffffffffffffffffff82169050919050565b60006117588261172d565b9050919050565b6117688161174d565b82525050565b6000602082019050611783600083018461175f565b92915050565b6000604051905090565b600080fd5b600080fd5b600080fd5b7f4e487b7100000000000000000000000000000000000000000000000000000000600052604160045260246000fd5b6117da8261168d565b810181811067ffffffffffffffff821117156117f9576117f86117a2565b5b80604052505050565b600061180c611789565b905061181882826117d1565b919050565b600067ffffffffffffffff821115611838576118376117a2565b5b602082029050602081019050919050565b600080fd5b600080fd5b600067ffffffffffffffff82111561186e5761186d6117a2565b5b6118778261168d565b9050602081019050919050565b82818337600083830152505050565b60006118a66118a184611853565b611802565b9050828152602081018484840111156118c2576118c161184e565b5b6118cd848285611884565b509392505050565b600082601f8301126118ea576118e961179d565b5b81356118fa848260208601611893565b91505092915050565b60006119166119118461181d565b611802565b9050808382526020820190506020840283018581111561193957611938611849565b5b835b8181101561198057803567ffffffffffffffff81111561195e5761195d61179d565b5b80860161196b89826118d5565b8552602085019450505060208101905061193b565b5050509392505050565b600082601f83011261199f5761199e61179d565b5b81356119af848260208601611903565b91505092915050565b6119c1816116f9565b81146119cc57600080fd5b50565b6000813590506119de816119b8565b92915050565b600080600080608085870312156119fe576119fd611793565b5b600085013567ffffffffffffffff811115611a1c57611a1b611798565b5b611a288782880161198a565b9450506020611a39878288016119cf565b9350506040611a4a878288016119cf565b9250506060611a5b878288016119cf565b91505092959194509250565b60008115159050919050565b611a7c81611a67565b82525050565b6000602082019050611a976000830184611a73565b92915050565b600081519050919050565b600082825260208201905092915050565b6000819050602082019050919050565b611ad28161174d565b82525050565b6000611ae48383611ac9565b60208301905092915050565b6000602082019050919050565b6000611b0882611a9d565b611b128185611aa8565b9350611b1d83611ab9565b8060005b83811015611b4e578151611b358882611ad8565b9750611b4083611af0565b925050600181019050611b21565b5085935050505092915050565b60006020820190508181036000830152611b758184611afd565b905092915050565b611b868161174d565b8114611b9157600080fd5b50565b600081359050611ba381611b7d565b92915050565b600060208284031215611bbf57611bbe611793565b5b6000611bcd84828501611b94565b91505092915050565b600060208284031215611bec57611beb611793565b5b6000611bfa848285016119cf565b91505092915050565b6000606082019050611c186000830186611a73565b611c256020830185611a73565b611c326040830184611703565b949350505050565b60006040820190508181036000830152611c54818561169e565b9050611c636020830184611703565b9392505050565b7f4e487b7100000000000000000000000000000000000000000000000000000000600052603260045260246000fd5b7f4e487b7100000000000000000000000000000000000000000000000000000000600052601160045260246000fd5b6000611cd3826116f9565b91507fffffffffffffffffffffffffffffffffffffffffffffffffffffffffffffffff821415611d0657611d05611c99565b5b600182019050919050565b7f4e487b7100000000000000000000000000000000000000000000000000000000600052602260045260246000fd5b60006002820490506001821680611d5857607f821691505b60208210811415611d6c57611d6b611d11565b5b50919050565b7f4f6e6c792074686520566f74696e672043686169726d616e2063616e2070657260008201527f666f726d207468697320616374696f6e00000000000000000000000000000000602082015250565b6000611dce603083611649565b9150611dd982611d72565b604082019050919050565b60006020820190508181036000830152611dfd81611dc1565b9050919050565b7f43616e646964617465732068617665206265656e2061646465642c20686f6c6460008201527f206f6e20666f722074686520766f74696e672063686169726d616e20746f206460208201527f65636c617265206e657720656c656374696f6e00000000000000000000000000604082015250565b6000611e86605383611649565b9150611e9182611e04565b606082019050919050565b60006020820190508181036000830152611eb581611e79565b9050919050565b7f41746c65617374206f6e65204173706972616e74206d7573742062652061646460008201527f6564000000000000000000000000000000000000000000000000000000000000602082015250565b6000611f18602283611649565b9150611f2382611ebc565b604082019050919050565b60006020820190508181036000830152611f4781611f0b565b9050919050565b7f456e642074696d65206f6620766f74696e67206d75737420626520616674657260008201527f20766f74696e6720636f6d6d656e63652074696d650000000000000000000000602082015250565b6000611faa603583611649565b9150611fb582611f4e565b604082019050919050565b60006020820190508181036000830152611fd981611f9d565b9050919050565b7f566f74696e6720697320656e6465640000000000000000000000000000000000600082015250565b6000612016600f83611649565b915061202182611fe0565b602082019050919050565b6000602082019050818103600083015261204581612009565b9050919050565b7f566f746572206973206e6f742072656769737465726564000000000000000000600082015250565b6000612082601783611649565b915061208d8261204c565b602082019050919050565b600060208201905081810360008301526120b181612075565b9050919050565b7f566f7465722068617320766f7465640000000000000000000000000000000000600082015250565b60006120ee600f83611649565b91506120f9826120b8565b602082019050919050565b6000602082019050818103600083015261211d816120e1565b9050919050565b7f496e76616c6964204173706972616e7420696e64657800000000000000000000600082015250565b600061215a601683611649565b915061216582612124565b602082019050919050565b600060208201905081810360008301526121898161214d565b9050919050565b7f4f6e6c7920746865206f776e65722063616e207472616e73666572206f776e6560008201527f72736869702e0000000000000000000000000000000000000000000000000000602082015250565b60006121ec602683611649565b91506121f782612190565b604082019050919050565b6000602082019050818103600083015261221b816121df565b9050919050565b7f566f74696e6720686173206e6f7420656e646564000000000000000000000000600082015250565b6000612258601483611649565b915061226382612222565b602082019050919050565b600060208201905081810360008301526122878161224b565b9050919050565b7f566f74657320617265206e6f7420656e6f756768000000000000000000000000600082015250565b60006122c4601483611649565b91506122cf8261228e565b602082019050919050565b600060208201905081810360008301526122f3816122b7565b9050919050565b7f566f746572206973207265676973746572656400000000000000000000000000600082015250565b6000612330601383611649565b915061233b826122fa565b602082019050919050565b6000602082019050818103600083015261235f81612323565b905091905056fea26469706673582212201c7be01a87b9b98dd8601c8cc4dfbb90fca7c357a255b33adbee40696f4b5d0164736f6c63430008090033",
  "linkReferences": {},
  "deployedLinkReferences": {}
}